:100BA500FFFF1FF0EFEFF7DFF7DFEFEF1FF0FFFFBE
:100BB500FFFFFFFFEFDFEFDF07C0FFDFFFDFFFFF17
:100BC500FFFF8FCFF7D7F7DBF7DDF7DE0FCFFFFF9F
:100BD500FFFFCFE7F7DFF7DEF7DE77DD8FE3FFFF18
:100BE500FFFFFFF97FFABFDBCFDB07C0FFDBFFDBD2
:100BF500FFFF07E677DF77DF77DFF7EEF7F1FFFF38
:100C0500FFFF1FF0EFEE77DF77DF6FDFFFE0FFFF1E
:100C1500FFFFE7FFF7FFF7C177FE97FFE7FFFFFF4E
:100C2500FFFF8FE377DDF7DEF7DE77DD8FE3FFFF8D
:100C3500FFFF0FFEF7EDF7DDF7DDEFEE1FF0FFFF2E
:100C4500FFFFFFFFFFFF3FCF3FCFFFFFFFFFFFFF8F
:100C5500FFFFFFFEFFFEFFFEFFFEFFFEFFFEFFFFA5
:100C650000FF00DF00DF009F00DF00DF00DF00EF97
:100C750000DF00EF0000000000FF00FF00FF00FFA5
:100C850000FF00FF000000C000BF00BF00DF00BF85
:100C950000EF00BF00F700BF00FF008700FF00FF67
:100CA50000FB00FF00FB00BF00FB00DF001B00E4B2
:100CB50000DB00FD00DB00BD00DA007D00D900810E
:100CC50000DB00FD00DB00FD00DB00FD001B00F488
:100CD50000FB00EF00FB009F00FB00FF00FF00FF93
:100CE50000EF00FB00EF00FC002F00FF00000000FC
:100CF500006F00FF00EF00EE00FF00F700EF00FBC4
:100D050000EF00FC002F00FF00000000002F00FF97
:100D150000EF00FC00EF00FB00EF00F700FF00FF15
:100D250000FF00BF00EF00BF009F00BF007F00BCB9
:100D350000FF00BF0000008000FF00BF00FF00BFF4
:100D450000FF00BF0000008000FF00BD00FF00BEE7
:100D5500003F00BF00CF00BF00FF00BF00FF00FF46
:100D650000DF007F00DF007F00DF00BF00DF00DF66
:100D750000DF00EF00DF00F300DF00FC000000FFF4
:100D850000DF00FC00DF00F300DF00EF00DF00DF25
:100D950000DF00BF00DF007F00DF007F00FF00FFF6
:100DA50000BF00FB00CF00FB00EE00FB006900FB6D
:100DB500006F00FB006F00BB006E007B00690081C7
:100DC500006F00F9006F00FA006700FB00EB00FB05
:100DD50000EC00FB00AF00FB00CF00FB00FF00FFB5
:090FF500070F3059141907031904
:100E7100C4540FFDC454F024A5F582E4340BF5836A
:100E8100E5822FF582E5833EF583E493F580EDC499
:100E910054F024A6F582E4340BF583E5822FF58224
:0A0EA100E5833EF583E493FF7E0035
:040EAB00AD07AC06DD
:100EAF00E4FBFAF582F583752300ED5401F524EC8C
:100EBF00C313FCED13FDE5242BFBE5233AFAE58282
:100ECF00640745836007EB25E0FBEA33FAA3E5826D
:0A0EDF006408458370D1AE02AF0332
:010EE90022E6
:060F5E00C2B7C2B5D2B714
:0F0F6400EF7F08A2E092B6D2B5C2B5C313DFF497
:010F7300225B
:0F0FB0007F08C313A2B692E7C2B5D2B5DFF4FF34
:010FBF00220F
:0A0FEA00120F5ED2B5120FB0C2B7AD
:010FF40022DA
:0F0FC000AE05120F5EAF06120F64D2B5C2B72294
:100EEA007F81120FEA8F0C7F83120FEA8F097F85A9
:100EFA00120FEA8F0E7F87120FEA8F0D7F89120F6A
:100F0A00EA8F087F8B120FEA8F0A7F8D120FEA8F02
:020F1A000B22A8
:100F1C00752380E4FD7F8E120FC07C07120F45FDF8
:100F2C00AF23120FC0740129F9E43AFA0523052303
:090F3C00DCEA7D807F8E020FC00B
:100F8A00E4FFE4FEE4FD0DBD80FC0EBE01F60FBFDA
:020F9A0001F064
:010F9C002232
:100F9D00E4FFE4FEE4FD0DBD80FC0EBE02F60FBFC6
:020FAD0002F050
:010FAF00221F
:0C0FDD007F0F7ECA7D51DDFEDEFADFF6DC
:010FE90022E5
:100F7400758920758DFD758BFDD28EC29FD29ED250
:060F84009CD2AFD2AC22AA
:10080000E4F519F51AF51BF51CF51DF51EF51FF598
:1008100020F521F522C291F5A0F580120F74E5169E
:10082000644170512090F7F517F518C3E5189460EE
:10083000E517940050E8E518AE177802C333CE33BD
:10084000CED8F9FF2465F582740C3EF583740193CC
:10085000F58074672FF582740C3EF583E493FE7483
:100860000193FF120EAB8FA0120F9D0518E51870B3
:10087000BA051780B6E51664426003020B9120901A
:10088000F4120EEAE509B45919E50CB45614E51A48
:100890004519700ED291120FDDC291F519751A012A
:1008A00080ECE509B45919E50CB45714E51C451B57
:1008B000700ED291120FDDC291F51B751C0180ECF8
:1008C000E509B45919E50CB45814E51E451D700E20
:1008D000D291120FDDC291F51D751E0180ECE50964
:1008E000B45919E50CB45914E520451F700ED29186
:1008F000120FDDC291F51F75200180ECE50970181B
:10090000E50C7014E5224521700ED291120FDDC264
:1009100091F52175220180ECE50964596019E5091A
:100920006015E4F521F522F51FF520F51DF51EF5FE
:100930001BF51CF519F51AE4F517F518E51825E06F
:10094000FFE51733FEE50E120E718FA0120F8A0518
:1009500018E51870020517C39408E517940040DCE9
:10096000E4F517F518E51825E0FFE51733FEE50E69
:10097000120E728FA0120F8A0518E5187002051763
:10098000C39408E517940040DCE4F517F518E51862
:1009900025E0FFE51733FE74452FF582740C3EF514
:1009A00083E493F58074462FF582740C120EA38FA6
:1009B000A0120F8A0518E51870020517C39408E500
:1009C00017940040C9E4F517F518E51825E0FFE590
:1009D0001733FEE509120E718FA0120F8A0518E574
:1009E0001870020517C39408E517940040DCE4F57D
:1009F00017F518E51825E0FFE51733FEE509120E97
:100A0000728FA0120F8A0518E51870020517C3949B
:100A100008E517940040DCE4F517F518E51825E023
:100A2000FFE51733FE74452FF582740C3EF583E421
:100A300093F58074462FF582740C120EA38FA012CA
:100A40000F8A0518E51870020517C39408E5179476
:100A50000040C9E4F517F518E51825E0FFE5173360
:100A6000FEE50C120E718FA0120F8A0518E51870A2
:100A7000020517C39408E517940040DCE4F517F568
:100A800018E51825E0FFE51733FEE50C120E728F0E
:100A9000A0120F8A0518E51870020517C39408E51F
:100AA00017940040DC120F9DE4F517F518E51825A2
:100AB000E0FFE51733FEE50D120E718FA0120F8ACD
:100AC0000518E51870020517C39408E5179400404F
:100AD000DCE4F517F518E51825E0FFE51733FEE52A
:100AE0000D120E728FA0120F8A0518E518700205FC
:100AF00017C39408E517940040DCE4F517F518E5F2
:100B00001825E0FFE51733FE74552FF582740C3E6F
:100B1000F583E493F58074562FF582740C120EA3BE
:100B20008FA0120F8A0518E51870020517C39408E4
:100B3000E517940040C9E4F517F518E51825E0FF1E
:100B4000E51733FEE508120E718FA0120F8A051803
:100B5000E51870020517C39408E517940040DCE41B
:100B6000F517F518E51825E0FFE51733FEE508123F
:100B70000E728FA0120F8A0518E51870020517C3B0
:100B80009408E517940040DC7580FF75A0FF02080B
:100B900075E5166443600302081EFB7A00790F12A4
:050BA0000F1C02081EFD
:03002300020FCFFA
:0E0FCF00859916C2988516993099FDC29932FF
:03000000020DE509
:0C0DE500787FE4F6D8FD758124020E2C06
:100F4500BB010689828A83E0225002E722BBFE02AA
:090F5500E32289828A83E49322DD
:100DF100020800E493A3F8E493A34003F68001F210
:100E010008DFF48029E493A3F85407240CC8C33302
:100E1100C4540F4420C8834004F456800146F6DFD1
:100E2100E4800B0102040810204080900FF5E47E5D
:100E3100019360BCA3FF543F30E509541FFEE493C6
:100E4100A360010ECF54C025E060A840B8E493A38D
:100E5100FAE493A3F8E493A3C8C582C8CAC583CAB8
:100E6100F0A3C8C582C8CAC583CADFE9DEE780BE70
:010FFE0000F2
:00000001FF
